:1000000002035402000000000000000202F9000098
:1000100000000002000000000000000200000000DC
:0E0020000000000200000000000000020000CE
:10002E002104746C2513F8AA1474010A8002C333D8
:10003E00DAFCF96301FFAA01E65AF9A601747425E8
:10004E0013F8AA1474010A8002C333DAFCF96301AF
:10005E00FFAA01E65AF9A6012120746C2513F8AA0D
:10006E001474010A8002C333DAFCF9AA01E64AF9D4
:10007E00A60174742513F8AA1474010A8002C333FE
:10008E00DAFCF96301FFAA01E65AF9A601212074F0
:10009E006C2513F8AA1474010A8002C333DAFCF932
:1000AE006301FFAA01E65AF9A60174742513F8AA92
:1000BE001474010A8002C333DAFCF9AA01E64AF984
:1000CE00A601804E746C2513F8AA1474010A8002DE
:1000DE00C333DAFCF9AA01E64AF9A60174742513B2
:1000EE00F8AA1474010A8002C333DAFCF9AA01E6F5
:1000FE004AF9A601801CE51570020130E515640170
:10010E0070020168E51564027002019DE515640335
:03011E0060B222AA
:020121000022BA
:040123007580FF22C2
:10012700850E12D3E512950F500F85121385101403
:0A013700851115112E051280EA2231
:10014100850F12D3E5129510500F850E13851214E9
:0A015100851115112E051280EA2217
:10015B00750E00751000751100751210C3E5119422
:10016B000450507580F0E51264FFF5803121312188
:10017B00E58044F0F885000F6300FF85000FE86011
:10018B001B85100EE50F60117801E50F088002C387
:10019B0013D8FCF50F050E80EB7511047801E512F1
:1001AB00088002C333D8FCF512E5102404F51005C2
:0601BB001180A9A80E222C
:0601C1007F03DFFE0022B7
:0F01C700758901758CF9758A7D75A882D28C2295
:1001D600315B85000DE580540FF9640F600431C171
:0501E60080F3A80D22CA
:0301EB003123229B
:1001EE00750E00750F007510067511023141750EF2
:1001FE0001750F0775100675110231277508017507
:0E020E000E00750F07751007751101312722BC
:08021C00E493F608A3D9F922CE
:0702240031EB31C731EE227E
:10022B0075A00075B0008516908517A08518B022B3
:10023B00750B05C3E50B9400403D850BF07407A4CB
:10024B00F8744228FAC3E50A9401F8E49400F9EA39
:10025B0028F88601E9701C850BF07407A4F874422A
:10026B0028FAC3E50A9401F8E49400F9EA28F8A601
:10027B00088004150B80BC750C00C3E50C950B5066
:10028B0023850A13850C14850815112E7EA37F1E5A
:10029B00DFFEDEFC00850A13850C14751500112E8C
:1002AB00050C80D6850A13850B14850815112E2293
:0D02BB0031D685000A7430250AF88600222D
:1002C800E50864017013750803750E00750F07754E
:1002D800100775110331278017E50864037011753D
:1002E8000801750E00750F07751007751101312784
:0102F80022E3
:1002F900C000C001C002C0D0C0E0C0F0C082C0834D
:10030900C28C758CF9758A7DE54124C8F9E43403FA
:10031900FA850182850283E493F8850016746C25B9
:1003290041F8861774742541F88618512B0541E563
:100339004164087003754100D28CD083D082D0F01B
:0B034900D0E0D0D0D002D001D00032B4
:100354007581801203D1512451BB850009C3E894EF
:100364003140F5D3E509943750EEC3E5099430F5EF
:090374000A513B51C880E180FEF2
:1003D100783079117582B775830312021C784179DF
:1003E100017582D075830312021C7842793A7582B5
:0803F1007D75830312021C223A
:10037D000000000000000000000000000000000070
:10038D000000000000000000000000000000000060
:0A039D000000000000000000000056
:0803A70000000000000000004E
:0803AF00000000000000000046
:1003B700003132334134353642373839432A302316
:0103C70044F1
:0803C80001020408102040802E
:0103D000002C
:00000001FF
