:1000000002072302000000000000000206C80000F2
:10001000000000020000000000000002080A0000CA
:0E0020000000000200000000000000020000CE
:10002E002104746B2524F8AA2374010A8002C333B9
:10003E00DAFCF96301FFAA01E65AF9A6017430252C
:10004E0024F8AA2374010A8002C333DAFCF963018F
:10005E00FFAA01E65AF9A6012120746B2524F8AAFD
:10006E002374010A8002C333DAFCF9AA01E64AF9C5
:10007E00A60174302524F8AA2374010A8002C33322
:10008E00DAFCF96301FFAA01E65AF9A601212074F0
:10009E006B2524F8AA2374010A8002C333DAFCF913
:1000AE006301FFAA01E65AF9A60174302524F8AAC5
:1000BE002374010A8002C333DAFCF9AA01E64AF975
:1000CE00A601804E746B2524F8AA2474010A8002BE
:1000DE00C333DAFCF9AA01E64AF9A60174302524E5
:1000EE00F8AA2474010A8002C333DAFCF9AA01E6E5
:1000FE004AF9A601801CE52570020130E525640150
:10010E0070020168E52564027002019DE525640315
:03011E0060B222AA
:10012100851F22D3E5229520500F851E2385222489
:0A013100852125112E052280EA2207
:10013B00750801751E07751F0075200775210131A4
:02014B0021226F
:02014D0000228E
:10014F0075900075A00075B000438901758CF97525
:08015F008A7D43A882D28C22A4
:10016700750B00750C00750D00750E004389107531
:0B0177008DFC758BBE43A888D28E2241
:10018200751D00C3E51D94085012746B251DF87689
:0D019200007430251DF87600051D80E72261
:04019F007580FF2246
:0901A3003167319F314F313B22DD
:1001AC00751800751A00751B00751C10C3E51B949F
:1001BC000450507580F0E51C64FFF580314D314DD5
:1001CC00E58044F0F88500196300FF850019E860AC
:1001DC001B851A18E51960117801E519088002C30E
:1001EC0013D8FCF519051880EB751B047801E51C78
:1001FC00088002C333D8FCF51CE51A2404F51A0553
:06020C001B80A9A81822C6
:10021200E50864017013750802751E07751F0075E5
:10022200200775210231218017E5086402701175DB
:100232000801751E07751F00752007752101312100
:010242002299
:1002430075900075A00075B0008527A08528B0853E
:03025300269022D0
:10025600751800C3E51894065022751900C3E519F0
:10026600940750148518F07407A4F8744128F825EB
:1002760019F87600051980E5051880D7751800C3AA
:10028600E51894045027751900C3E519940250190E
:100296007901E518098002C333D9FCF8743928F8C6
:1002A6002519F87600051980E0051880D2318231CB
:0202B6003B22E9
:1002B800751905C374006480F8E51964809840478F
:1002C8008519F07407A4F8744128FAC3E518940155
:1002D800F8E49400F9EA28F88601E970268519F00F
:1002E8007407A4F8744128FAC3E5189401F8E49453
:1002F80000F9EA28F8A60885190AC3E5189401F553
:10030800098004151980AC751A00C3E5196480F8D2
:10031800E51A6480985023851A23851824850825B2
:10032800112E7EA37F1EDFFEDEFC00851A238518B2
:1003380024752500112E051A80D0C374006480F836
:10034800E519648098400E851923851824850825A9
:08035800112E78012278002229
:10036000E518602D751900C3E51994045021790131
:10037000E519098002C333D9FCF8743928F88623BB
:1003800008E62401F524850825112E051980D8805A
:100390002B751900C3E519940450217901E5190959
:1003A0008002C333D9FCF8743928F8862308E62480
:0D03B00001F524752500112E051980D822B5
:0903BD00A80BA90CAA0DAB0E223D
:0803C600E493F608A3D9F92223
:1003CE0075180085091AC374006480F8E51A6480F4
:1003DE0098404D850AF07407A4F8744128F8251A40
:1003EE00F88601E9650870327901E518098002C3C3
:1003FE0033D9FCF8743928F8A60A7901E518098072
:10040E0002C333D9FCF8743928F808A61A0518E582
:10041E00186404700378012280028004151A80A6E5
:10042E00E5092401F51AC374076480F8E51A64809F
:10043E0098504D850AF07407A4F8744128F8251ACF
:10044E00F88601E9650870327901E518098002C362
:10045E0033D9FCF8743928F8A60A7901E518098011
:10046E0002C333D9FCF8743928F808A61A0518E522
:10047E00186404700378012280028004051A80A695
:10048E00751800850A1985091AC374066480F8E583
:10049E00196480984002A102C374006480F8E51AC2
:1004AE00648098404F8519F07407A4F8744128F8B9
:1004BE00251AF88601E9650870327901E518098078
:1004CE0002C333D9FCF8743928F8A6197901E51856
:1004DE00098002C333D9FCF8743928F808A61A0526
:1004EE0018E518640470037801228002800605194D
:1004FE00151A8197C3E50A9401F519E5092401F54A
:10050E001AC374006480F8E5196480985002A17AC9
:10051E00C374076480F8E51A648098504F8519F00B
:10052E007407A4F8744128F8251AF88601E96508BD
:10053E0070327901E518098002C333D9FCF8743999
:10054E0028F8A6197901E518098002C333D9FCF8F9
:10055E00743928F808A61A0518E51864047003788B
:10056E000122800280061519051AA10F7518008543
:10057E000A1985091AC374006480F8E51964809815
:10058E005002A1EEC374006480F8E51A64809840AE
:10059E004F8519F07407A4F8744128F8251AF886C7
:1005AE0001E9650870327901E518098002C333D973
:1005BE00FCF8743928F8A6197901E518098002C3E8
:1005CE0033D9FCF8743928F808A61A0518E518640A
:1005DE00047003780122800280061519151AA18372
:1005EE00E50A2401F519E5092401F51AC374066418
:1005FE0080F8E5196480984002C165C37407648071
:10060E00F8E51A648098504F8519F07407A4F874B1
:10061E004128F8251AF88601E9650870327901E556
:10062E0018098002C333D9FCF8743928F8A6197951
:10063E0001E518098002C333D9FCF8743928F8088B
:10064E00A61A0518E518640470037801228002804A
:10065E00060519051AA1FA751800850A19C374063C
:10066E006480F8E519648098504D8519F07407A4DC
:10067E00F8744128F82509F88601E9650870327981
:10068E0001E518098002C333D9FCF8743928F8A69D
:10069E00197901E518098002C333D9FCF874392899
:1006AE00F808A6090518E51864047003780122807D
:0A06BE00028004051980A6780022CE
:1006C800C000C001C002C0D0C0E0C0F0C082C0837A
:1006D800C28C758CF9758A7DE5382494F9E4340860
:1006E800FA850182850283E493F8850026746B25D8
:1006F80038F8862774302538F8862851430538E5B8
:100708003864087003753800D28CD083D082D0F05A
:0B071800D0E0D0D0D002D001D00032E1
:1007230075818012089D31A331ACE8247BF8E43451
:1007330008F9850082850183E493FA85020FC3EAF1
:10074300943140E4D3E50F943750DDC3E50F943083
:10075300F51851B8E860D171CEE870030208027150
:10076300BD85001085011185021285031371BD85B6
:100773000014850115850216850317C3E89510FC3F
:10078300E99511FDEA9512FEEB9513F507C3EC9479
:10079300F4ED9401EE9400E50794005007751801F9
:1007A30071608039C3E5149510F9E5159511FAE5E3
:1007B300169512FBE5179513FCC3E994E8EA940335
:1007C300EB9400EC940050077518007160800E7173
:1007D300BD85001085011185021285031331ACE834
:1007E300247BF8E43408F9850082850183E493FAD5
:1007F30085020FEA64446002E1701202568003121C
:07080300021202072B80FE28
:10080A00C0D0C0E0C0F0C082C083C28E758DFC75B6
:10081A008BBE7401250BF50B7400350CF50C7400B6
:10082A00350DF50D7400350EF50ED28ED083D082BB
:07083A00D0F0D0E0D0D03275
:10089D007830790875828C7583081203C67838799B
:1008AD000175829C7583081203C67839793A758271
:0808BD00417583081203C622F5
:080841000000000000000000AF
:10084900000000000000000000000000000000009F
:10085900000000000000000000000000000000008F
:0A0869000000000000000000000085
:0808730000000000000000007D
:10087B00003132334134353642373839432A30234D
:01088B004428
:08088C00000000000000000064
:0808940001020408102040805D
:01089C00005B
:00000001FF
