:1000000002023D02000000000000000201E20000C8
:1000100000000002000000000000000200000000DC
:0E0020000000000200000000000000020000CE
:02002E000022AE
:10003000750E00751000751100751210C3E511944E
:100040000450507580F0E51264FFF580112E112EDA
:10005000E58044F0F885000F6300FF85000FE8603D
:100060001B85100EE50F60117801E50F088002C3B3
:1000700013D8FCF50F050E80EB7511047801E5121D
:10008000088002C333D8FCF512E5102404F51005EE
:060090001180A9A80E2258
:060096007F03DFFE0022E3
:04009C007580FF224A
:1000A000113085000DE580540FF9640F600411963E
:0500B00080F3A80D2201
:0800B500E493F608A3D9F92237
:0300BD00119C2271
:1000C00075A00075B000E51364FFF5908514A08558
:0300D00015B02246
:1000D30021A97430250AF8AA0B74010A8002C333DC
:1000E300DAFCF96301FFAA01E65AF9A601744A256D
:1000F3000AF8AA0B74010A8002C333DAFCF963011C
:10010300FFAA01E65AF9A60121C57430250AF8AA07
:100113000B74010A8002C333DAFCF9AA01E64AF937
:10012300A601744A250AF8AA0B74010A8002C33394
:10013300DAFCF96301FFAA01E65AF9A60121C574A5
:1001430030250AF8AA0B74010A8002C333DAFCF9DA
:100153006301FFAA01E65AF9A601744A250AF8AA1F
:100163000B74010A8002C333DAFCF9AA01E64AF9E7
:10017300A601804E7430250AF8AA0B74010A800286
:10018300C333DAFCF9AA01E64AF9A601744A250A3F
:10019300F8AA0B74010A8002C333DAFCF9AA01E658
:1001A3004AF9A601801CE50C700201D5E50C640137
:1001B3007002210DE50C640270022142E50C640318
:0301C30060B22205
:0D01C60011A085000A7439250AF886002270
:0F01D300758901758CF9758A7D75A882D28C2289
:1001E200C000C001C002C0D0C0E0C0F0C082C08365
:1001F200C28C758CF9758A7DE53824CAF9E434021B
:10020200FA850182850283E493F885001374302510
:1002120038F88614744A2538F8861511C00538E571
:100222003864087003753800D28CD083D082D0F045
:0B023200D0E0D0D0D002D001D00032CC
:10023D007581801202D311BD31D331C6850009E815
:10024D0060F8C3E50994304049D3E509943750422D
:10025D00750800C3E50894085036C3E5099430F5D8
:10026D000A85080B750C0211D3C3E50894014013E0
:10027D00C3E5099430F50AC3E5089401F50B750C37
:10028D000011D37EA37F1EDFFEDEFC00050880C3B8
:0C029D008006E5096443700080A080FE2C
:1002D300783079087582C27583021200B57838794F
:1002E300017582D27583021200B578397919758246
:0802F300A97583021200B52277
:1002A900003132334134353642373839432A302325
:0102B9004400
:0802BA0000000000000000003C
:0802C200000000000000000034
:0802CA0001020408102040802D
:0102D200002B
:00000001FF
