:1000000002017F02000000000000000201C90000A0
:1000100000000002000000000000000200000000DC
:0E0020000000000200000000000000020000CE
:10002E0021047431250DF8AA0E74010A8002C3331F
:10003E00DAFCF96301FFAA01E65AF9A60174392523
:10004E000DF8AA0E74010A8002C333DAFCF96301BB
:10005E00FFAA01E65AF9A60121207431250DF8AA4E
:10006E000E74010A8002C333DAFCF9AA01E64AF9DA
:10007E00A6017439250DF8AA0E74010A8002C33345
:10008E00DAFCF96301FFAA01E65AF9A601212074F0
:10009E0031250DF8AA0E74010A8002C333DAFCF979
:1000AE006301FFAA01E65AF9A6017439250DF8AAD3
:1000BE000E74010A8002C333DAFCF9AA01E64AF98A
:1000CE00A601804E7431250DF8AA0E74010A800225
:1000DE00C333DAFCF9AA01E64AF9A6017439250DF3
:1000EE00F8AA0E74010A8002C333DAFCF9AA01E6FB
:1000FE004AF9A601801CE50F70020130E50F64017C
:10010E0070020168E50F64027002019DE50F640341
:03011E0060B222AA
:1001210085080CD3E50C9509500F850C0D850A0E39
:0A013100850B0F112E050C80EA2249
:10013B0075A00075B000E51064FFF5908511A085E2
:03014B0012B022CD
:10014E0085090CD3E50C950A500F85080D850C0E0C
:0A015E00850B0F112E050C80EA221C
:08016800E493F608A3D9F92283
:0F017000758901758CF9758A7D75A882D28C22EC
:10017F0075818012023D3170750800750900750A8E
:10018F0007750B02314E750801750907750A06755B
:10019F000B023121750800750907750A07750B01E8
:1001AF003121750D03750E05750F01112E750D0497
:0A01BF00750E05750F02112E80FE6B
:1001C900C000C001C002C0D0C0E0C0F0C082C0837E
:1001D900C28C758CF9758A7DE5302434F9E43402D2
:1001E900FA850182850283E493F88500107431252C
:1001F90030F8861174392530F88612313B0530E51F
:100209003064087003753000D28CD083D082D0F06E
:0B021900D0E0D0D0D002D001D00032E5
:10023D007830790175823C758302120168783179C5
:0B024D001075822475830212016822E4
:080224000000000000000000D2
:08022C000000000000000000CA
:080234000102040810204080C3
:01023C0000C1
:00000001FF
