:100000000206CF020000000000000002067400009B
:1000100000000002000000000000000207B2000023
:0E0020000000000200000000000000020000CE
:10002E002104746B2526F8AA2574010A8002C333B5
:10003E00DAFCF96301FFAA01E65AF9A6017430252C
:10004E0026F8AA2574010A8002C333DAFCF963018B
:10005E00FFAA01E65AF9A6012120746B2526F8AAFB
:10006E002574010A8002C333DAFCF9AA01E64AF9C3
:10007E00A60174302526F8AA2574010A8002C3331E
:10008E00DAFCF96301FFAA01E65AF9A601212074F0
:10009E006B2526F8AA2574010A8002C333DAFCF90F
:1000AE006301FFAA01E65AF9A60174302526F8AAC3
:1000BE002574010A8002C333DAFCF9AA01E64AF973
:1000CE00A601804E746B2526F8AA2674010A8002BA
:1000DE00C333DAFCF9AA01E64AF9A60174302526E3
:1000EE00F8AA2674010A8002C333DAFCF9AA01E6E3
:1000FE004AF9A601801CE52770020130E52764014C
:10010E0070020168E52764027002019DE527640311
:03011E0060B222AA
:10012100852124D3E5249522500F85202585242679
:0A013100852327112E052480EA2201
:02013B000022A0
:10013D00751B00751D00751E00751F10C3E51E94FF
:10014D000450507580F0E51F64FFF580313B313B65
:10015D00E58044F0F885001C6300FF85001CE86015
:10016D001B851D1BE51C60117801E51C088002C371
:10017D0013D8FCF51C051B80EB751E047801E51FDB
:10018D00088002C333D8FCF51FE51D2404F51D05B9
:06019D001E80A9A81B2230
:1001A300750B00750C00750D00750E0043891075F5
:0B01B3008DFC758BBE43A888D28E2205
:0401BE007580FF2227
:1001C2007508017520077521007522077523013115
:0201D2002122E8
:1001D40075900075A00075B000438901758CF975A0
:0801E4008A7D43A882D28C221F
:0601EC007F03DFFE00228C
:1001F200751B00C3E51B94085012746B251BF8761F
:0D020200007430251BF87600051B80E722F4
:10020F00751800C3E51894065012751900C3E51947
:10021F0094075004051980F5051880E7751800C379
:10022F00E51894045012751900C3E519940250048F
:0D023F00051980F5051880E731F231C22263
:10024C00E5086401701375080275200775210075A7
:10025C00220775230231218017E50864027011759D
:10026C0008017520077521007522077523013121BE
:01027C00225F
:08027D00E493F608A3D9F9226D
:1002850075900075A00075B0008529A0852AB085F8
:030295002890228C
:0902980031A331BE31D431C22280
:1002A100751905C374006480F8E5196480984047A6
:1002B1008519F07407A4F8744128FAC3E51894016C
:1002C100F8E49400F9EA28F88601E970268519F026
:1002D1007407A4F8744128FAC3E5189401F8E4946A
:1002E10000F9EA28F8A608851909C3E5189401F56B
:1002F1000A8004151980AC751A00C3E5196480F8E9
:10030100E51A6480985023851A25851826850827C3
:10031100112E7EA37F1EDFFEDEFC00851A258518C7
:1003210026752700112E051A80D0C374006480F849
:10033100E519648098400E851925851826850827BA
:08034100112E78012278002240
:10034900313D850018E580540FF9640F600431ECE4
:0503590080F3A818224A
:09035E00A80BA90CAA0DAB0E229C
:10036700751800850A1AC3E51A9400404D8509F0EF
:100377007407A4F8744128F8251AF88601E9650876
:1003870070327901E518098002C333D9FCF8743952
:1003970028F8A6097901E518098002C333D9FCF8C2
:1003A700743928F808A61A0518E518640470037844
:1003B700012280028004151A80ACE50A2401F51A8F
:1003C700C3E51A9407504D8509F07407A4F87441E2
:1003D70028F8251AF88601E9650870327901E518C9
:1003E700098002C333D9FCF8743928F8A6097901C2
:1003F700E518098002C333D9FCF8743928F808A630
:100407001A0518E518640470037801228002800435
:10041700051A80AC751800850919850A1AC3E519EC
:1004270094065056C3E51A9400404F8519F0740797
:10043700A4F8744128F8251AF88601E9650870328E
:100447007901E518098002C333D9FCF8743928F813
:10045700A6197901E518098002C333D9FCF8743964
:1004670028F808A61A0518E518640470037801220D
:10047700800280060519151A80A3C3E5099401F5C2
:1004870019E50A2401F51AC3E51994004056C3E596
:100497001A9407504F8519F07407A4F8744128F887
:1004A700251AF88601E9650870327901E51809808F
:1004B70002C333D9FCF8743928F8A6197901E5186D
:1004C700098002C333D9FCF8743928F808A61A053D
:1004D70018E5186404700378012280028006151954
:1004E700051A80A3751800850919850A1AC3E51925
:1004F70094004056C3E51A9400404F8519F07407DD
:10050700A4F8744128F8251AF88601E965087032BD
:100517007901E518098002C333D9FCF8743928F842
:10052700A6197901E518098002C333D9FCF8743993
:1005370028F808A61A0518E518640470037801223C
:10054700800280061519151A80A3E5092401F519FB
:10055700E50A2401F51AC3E51994065056C3E51AAE
:100567009407504F8519F07407A4F8744128F825AB
:100577001AF88601E9650870327901E518098002E1
:10058700C333D9FCF8743928F8A6197901E5180995
:100597008002C333D9FCF8743928F808A61A05185D
:1005A700E5186404700378012280028006051905A6
:1005B7001A80A3751800850919C3E5199406504DCB
:1005C7008519F07407A4F8744128F8250AF88601FC
:1005D700E9650870327901E518098002C333D9FC4F
:1005E700F8743928F8A6197901E518098002C33388
:1005F700D9FCF8743928F808A60A0518E518640420
:10060700700378012280028004051980AC780022EB
:10061700E518602D751900C3E51994045021790177
:10062700E519098002C333D9FCF8743928F88625FF
:1006370008E62401F526850827112E051980D8809C
:100647002B751900C3E519940450217901E519099F
:100657008002C333D9FCF8743928F8862508E624C4
:0D06670001F526752700112E051980D822F7
:10067400C000C001C002C0D0C0E0C0F0C082C083CE
:10068400C28C758CF9758A7DE538243CF9E434080C
:10069400FA850182850283E493F8850028746B252A
:1006A40038F8862974302538F8862A51850538E5C6
:1006B4003864087003753800D28CD083D082D0F0AF
:0B06C400D0E0D0D0D002D001D0003236
:1006CF0075818012084551987149E82423F8E43464
:1006DF0008F9850082850183E493FA85020FC3EA46
:1006EF00943140E4D3E50F943750DDC3E50F9430D8
:1006FF00F51851A1E860D17167E87002E1AC715E45
:10070F00850010850111850212850313715E850026
:10071F0014850115850216850317C3E89510FCE9AA
:10072F009511FDEA9512FEEB9513F507C3EC94F4C2
:10073F00ED9401EE9400E50794005007751800D171
:10074F00178039C3E5149510F9E5159511FAE516DB
:10075F009512FBE5179513FCC3E994E8EA9403EBB4
:10076F009400EC94005007751801D117800E715E3C
:10077F008500108501118502128503137149E82444
:10078F0023F8E43408F9850082850183E493FA8520
:10079F00020FEA64446002E11B510F8002514CC109
:0307AF00D780FEF2
:1007B200C0D0C0E0C0F0C082C083C28E758DFC750F
:1007C2008BBE7401250BF50B7400350CF50C74000F
:1007D200350DF50D7400350EF50ED28ED083D08214
:0707E200D0F0D0E0D0D032CE
:100845007830790875823475830812027D78387995
:100855000175824475830812027D7839793A75826B
:08086500E975830712027D22F0
:0807E900000000000000000008
:1007F10000000000000000000000000000000000F8
:1008010000000000000000000000000000000000E7
:0A08110000000000000000000000DD
:08081B000000000000000000D5
:10082300003132334134353642373839432A3023A5
:010833004480
:080834000000000000000000BC
:08083C000102040810204080B5
:0108440000B3
:00000001FF
