:1000000002061302000000000000000205A8000024
:10001000000000020000000000000002065900007D
:0E0020000000000200000000000000020000CE
:10002E002104746B251EF8AA1D74010A8002C333C5
:10003E00DAFCF96301FFAA01E65AF9A601745B2501
:10004E001EF8AA1D74010A8002C333DAFCF963019B
:10005E00FFAA01E65AF9A6012120746B251EF8AA03
:10006E001D74010A8002C333DAFCF9AA01E64AF9CB
:10007E00A601745B251EF8AA1D74010A8002C33303
:10008E00DAFCF96301FFAA01E65AF9A601212074F0
:10009E006B251EF8AA1D74010A8002C333DAFCF91F
:1000AE006301FFAA01E65AF9A601745B251EF8AAA0
:1000BE001D74010A8002C333DAFCF9AA01E64AF97B
:1000CE00A601804E746B251EF8AA1E74010A8002CA
:1000DE00C333DAFCF9AA01E64AF9A601745B251EC0
:1000EE00F8AA1E74010A8002C333DAFCF9AA01E6EB
:1000FE004AF9A601801CE51F70020130E51F64015C
:10010E0070020168E51F64027002019DE51F640321
:03011E0060B222AA
:020121000022BA
:1001230085191CD3E51C951A500F85181D851C1EB7
:0A013300851B1F112E051C80EA2217
:10013D00751300751500751600751710C3E5169427
:10014D000450507580F0E51764FFF58031213121A1
:10015D00E58044F0F88500146300FF850014E86025
:10016D001B851513E51460117801E514088002C391
:10017D0013D8FCF514051380EB7516047801E517FB
:10018D00088002C333D8FCF517E5152404F51505D1
:06019D001680A9A8132240
:0F01A300438901758CF9758A7D43A882D28C221D
:1001B200750B00750C00750D00750E0043891075E6
:0B01C2008DFC758BBE43A888D28E22F6
:0401CD007580FF2218
:0601D1007F03DFFE0022A7
:1001D700750A01751807751900751A07751B01311E
:0201E7002322D1
:1001E900751000850812C3E5129400404D8509F089
:1001F9007407A4F8743028F82512F88601E9650A0D
:1002090070327901E510098002C333D9FCF87463AF
:1002190028F8A6097901E510098002C333D9FCF849
:10022900746328F808A6120510E5106404700378B1
:10023900012280028004151280ACE5082401F51220
:10024900C3E5129407504D8509F07407A4F874307A
:1002590028F82512F88601E9650A70327901E51056
:10026900098002C333D9FCF8746328F8A609790117
:10027900E510098002C333D9FCF8746328F808A68D
:10028900120510E5106404700378012280028004CD
:10029900051280AC751000850911850812C3E51196
:1002A90094065056C3E5129400404F8511F0740727
:1002B900A4F8743028F82512F88601E9650A703225
:1002C9007901E510098002C333D9FCF8746328F871
:1002D900A6117901E510098002C333D9FCF87463CA
:1002E90028F808A6120510E51064047003780122A5
:1002F900800280060511151280A3C3E5099401F552
:1003090011E5082401F512C3E51194004056C3E52F
:10031900129407504F8511F07407A4F8743028F827
:100329002512F88601E9650A70327901E51009801C
:1003390002C333D9FCF8746328F8A6117901E510D2
:10034900098002C333D9FCF8746328F808A612059A
:1003590010E51064047003780122800280061511EB
:10036900051280A3751000850911850812C3E511CE
:1003790094004056C3E5129400404F8511F074076C
:10038900A4F8743028F82512F88601E9650A703254
:100399007901E510098002C333D9FCF8746328F8A0
:1003A900A6117901E510098002C333D9FCF87463F9
:1003B90028F808A6120510E51064047003780122D4
:1003C900800280061511151280A3E5092401F51193
:1003D900E5082401F512C3E51194065056C3E51248
:1003E9009407504F8511F07407A4F8743028F82544
:1003F90012F88601E9650A70327901E5100980026F
:10040900C333D9FCF8746328F8A6117901E51009FA
:100419008002C333D9FCF8746328F808A6120510C2
:10042900E510640470037801228002800605110535
:100439001280A3751000850911C3E5119406504D6A
:100449008511F07407A4F8743028F82508F8860196
:10045900E9650A70327901E510098002C333D9FCD4
:10046900F8746328F8A6117901E510098002C333ED
:10047900D9FCF8746328F808A6080510E510640487
:10048900700378012280028004051180AC78002273
:10049900E50A64017013750A027518077519007564
:1004A9001A07751B0231238017E50A64027011755A
:1004B9000A01751807751900751A07751B0131238B
:0104C9002210
:1004CA0075A00075B0008520908521A08522B022F4
:0904DA0031B231CD31A331D7223A
:1004E300751105C374006480F8E511648098404772
:1004F3008511F07407A4F8743028FAC3E510940149
:10050300F8E49400F9EA28F88601E970268511F0E9
:100513007407A4F8743028FAC3E5109401F8E4943E
:1005230000F9EA28F8A60A851109C3E5109401F534
:10053300088004151180AC751200C3E5116480F8BE
:10054300E512648098502385121D85101E850A1FAD
:10055300112E7EA37F1EDFFEDEFC0085121D85109B
:100563001E751F00112E051280D0C374006480F81D
:10057300E511648098400E85111D85101E850A1FA4
:08058300112E780122780022FC
:08058B00E493F608A3D9F9225C
:10059300313D850010E580540FF9640F600431D1BB
:0505A30080F3A8102206
:1005A800C000C001C002C0D0C0E0C0F0C082C0839B
:1005B800C28C758CF9758A7D7A01E4F9E55A0A804E
:1005C80005C333C933C9DAF9F874E328FA7406396C
:1005D800FB850282850383E493F8850020746B25EC
:1005E8005AF88621745B255AF8862291CA055AE57D
:1005F8005A64087003755A00D28CD083D082D0F028
:0B060800D0E0D0D0D002D001D00032F2
:100613007581801206F491DAB193E824D2F8E434B8
:1006230006F9850082850183E493FA85020FC3EA04
:10063300943140E4D3E50F943750DDC3E50F943094
:10064300F51091E3E860D131E9E8700491998002F3
:06065300800280C480FE5D
:10065900C0D0C0E0C0F0C082C083C28E758DFC7569
:100669008BBE7401250BF50B7400350CF50C740069
:10067900350DF50D7400350EF50ED28ED083D0826E
:07068900D0F0D0E0D0D03228
:1006F4007830792A75829075830612058B785A7939
:10070400017582F375830612058B785B79187582FF
:08071400BA75830612058B2261
:10069000000000000000000000000000000000005A
:1006A000000000000000000000000000000000004A
:0A06B0000000000000000000000040
:0806BA00000000000000000038
:0806C200000000000000000030
:0806CA00000000000000000028
:1006D200003132334134353642373839432A3023F8
:0106E20044D3
:1006E3000100020004000800100020004000800008
:0106F3000006
:00000001FF
